{
  "contractName": "SimpleStorage",
  "abi": [
    {
      "constant": true,
      "inputs": [],
      "name": "voteNo",
      "outputs": [
        {
          "name": "",
          "type": "uint32"
        }
      ],
      "payable": false,
      "stateMutability": "view",
      "type": "function"
    },
    {
      "constant": true,
      "inputs": [],
      "name": "voteYes",
      "outputs": [
        {
          "name": "",
          "type": "uint32"
        }
      ],
      "payable": false,
      "stateMutability": "view",
      "type": "function"
    },
    {
      "constant": false,
      "inputs": [
        {
          "name": "yes",
          "type": "bool"
        }
      ],
      "name": "vote",
      "outputs": [],
      "payable": false,
      "stateMutability": "nonpayable",
      "type": "function"
    }
  ],
  "bytecode": "0x608060405234801561001057600080fd5b506101ca806100206000396000f300608060405260043610610057576000357c0100000000000000000000000000000000000000000000000000000000900463ffffffff16806341c12a701461005c5780634b9f5c981461009357806390cf581c146100c2575b600080fd5b34801561006857600080fd5b506100716100f9565b604051808263ffffffff1663ffffffff16815260200191505060405180910390f35b34801561009f57600080fd5b506100c060048036038101908080351515906020019092919050505061010f565b005b3480156100ce57600080fd5b506100d7610189565b604051808263ffffffff1663ffffffff16815260200191505060405180910390f35b600060049054906101000a900463ffffffff1681565b801561014f5760008081819054906101000a900463ffffffff1660010191906101000a81548163ffffffff021916908363ffffffff160217905550610186565b6000600481819054906101000a900463ffffffff1660010191906101000a81548163ffffffff021916908363ffffffff1602179055505b50565b6000809054906101000a900463ffffffff16815600a165627a7a723058207ed71c90160563adb4e94c3e2fb5a123a7feb20f197a50dd1bd1c47b989c6f500029",
  "source": "pragma solidity ^0.4.24;\n\ncontract SimpleStorage {\n    uint32 public voteYes;\n    uint32 public voteNo;\n\n    function vote(bool yes) public {\n        if(yes)\n        {\n            ++voteYes;\n        }\n        else\n        {\n            ++voteNo;\n        }\n    }\n}\n",
  "sourcePath": "/Users/spolejan/Documents/DS/truffle/contracts/SimpleStorage.sol",
  "compiler": {
    "name": "solc",
    "version": "0.4.24+commit.e67f0147.Emscripten.clang"
  },
  "schemaVersion": "2.0.1",
  "updatedAt": "2018-10-27T10:22:58.908Z"
}