{
  "contractName": "SimpleStorage",
  "abi": [
    {
      "constant": true,
      "inputs": [],
      "name": "voteNo",
      "outputs": [
        {
          "name": "",
          "type": "uint32"
        }
      ],
      "payable": false,
      "stateMutability": "view",
      "type": "function"
    },
    {
      "constant": true,
      "inputs": [],
      "name": "voteYes",
      "outputs": [
        {
          "name": "",
          "type": "uint32"
        }
      ],
      "payable": false,
      "stateMutability": "view",
      "type": "function"
    },
    {
      "constant": true,
      "inputs": [],
      "name": "hash_value",
      "outputs": [
        {
          "name": "",
          "type": "string"
        }
      ],
      "payable": false,
      "stateMutability": "view",
      "type": "function"
    },
    {
      "constant": false,
      "inputs": [
        {
          "name": "yes",
          "type": "bool"
        }
      ],
      "name": "vote",
      "outputs": [],
      "payable": false,
      "stateMutability": "nonpayable",
      "type": "function"
    },
    {
      "constant": false,
      "inputs": [
        {
          "name": "in_hash",
          "type": "string"
        }
      ],
      "name": "saveHash",
      "outputs": [],
      "payable": false,
      "stateMutability": "nonpayable",
      "type": "function"
    },
    {
      "constant": true,
      "inputs": [],
      "name": "sayHello",
      "outputs": [
        {
          "name": "",
          "type": "string"
        }
      ],
      "payable": false,
      "stateMutability": "view",
      "type": "function"
    }
  ],
  "bytecode": "0x608060405234801561001057600080fd5b50610573806100206000396000f300608060405260043610610078576000357c0100000000000000000000000000000000000000000000000000000000900463ffffffff1680631c01b9bf1461007d57806341c12a70146100e65780634b9f5c981461011d57806390cf581c1461014c578063c56bc9f014610183578063ef5fb05b14610213575b600080fd5b34801561008957600080fd5b506100e4600480360381019080803590602001908201803590602001908080601f01602080910402602001604051908101604052809392919081815260200183838082843782019150505050505091929192905050506102a3565b005b3480156100f257600080fd5b506100fb6102bd565b604051808263ffffffff1663ffffffff16815260200191505060405180910390f35b34801561012957600080fd5b5061014a6004803603810190808035151590602001909291905050506102d3565b005b34801561015857600080fd5b5061016161034d565b604051808263ffffffff1663ffffffff16815260200191505060405180910390f35b34801561018f57600080fd5b50610198610362565b6040518080602001828103825283818151815260200191508051906020019080838360005b838110156101d85780820151818401526020810190506101bd565b50505050905090810190601f1680156102055780820380516001836020036101000a031916815260200191505b509250505060405180910390f35b34801561021f57600080fd5b50610228610400565b6040518080602001828103825283818151815260200191508051906020019080838360005b8381101561026857808201518184015260208101905061024d565b50505050905090810190601f1680156102955780820380516001836020036101000a031916815260200191505b509250505060405180910390f35b80600190805190602001906102b99291906104a2565b5050565b600060049054906101000a900463ffffffff1681565b80156103135760008081819054906101000a900463ffffffff1660010191906101000a81548163ffffffff021916908363ffffffff16021790555061034a565b6000600481819054906101000a900463ffffffff1660010191906101000a81548163ffffffff021916908363ffffffff1602179055505b50565b6000809054906101000a900463ffffffff1681565b60018054600181600116156101000203166002900480601f0160208091040260200160405190810160405280929190818152602001828054600181600116156101000203166002900480156103f85780601f106103cd576101008083540402835291602001916103f8565b820191906000526020600020905b8154815290600101906020018083116103db57829003601f168201915b505050505081565b606060018054600181600116156101000203166002900480601f0160208091040260200160405190810160405280929190818152602001828054600181600116156101000203166002900480156104985780601f1061046d57610100808354040283529160200191610498565b820191906000526020600020905b81548152906001019060200180831161047b57829003601f168201915b5050505050905090565b828054600181600116156101000203166002900490600052602060002090601f016020900481019282601f106104e357805160ff1916838001178555610511565b82800160010185558215610511579182015b828111156105105782518255916020019190600101906104f5565b5b50905061051e9190610522565b5090565b61054491905b80821115610540576000816000905550600101610528565b5090565b905600a165627a7a72305820b649be7b210689d621242d4120423101cd55525bfc9b8c3d47122ffd32fc614c0029",
  "source": "pragma solidity ^0.4.24;\n\ncontract SimpleStorage {\n    uint32 public voteYes;\n    uint32 public voteNo;\n    string public hash_value;\n\n    function vote(bool yes) public {\n        if(yes)\n        {\n            ++voteYes;\n        }\n        else\n        {\n            ++voteNo;\n        }\n    }\n\n    function saveHash (string memory in_hash) public {\n        hash_value = in_hash;\n    }\n    function sayHello() public view returns(string memory) {\n        return hash_value;\n    }\n}\n",
  "sourcePath": "/Users/spolejan/Documents/DS/project/contracts/SimpleStorage.sol",
  "compiler": {
    "name": "solc",
    "version": "0.4.24+commit.e67f0147.Emscripten.clang"
  },
  "schemaVersion": "2.0.1",
  "updatedAt": "2018-12-09T10:49:28.321Z"
}